:020000021000EC
:10900000A05D0020B5920100099301000B930100BF
:109010000D9301000F930100119301000000000067
:109020000000000000000000000000001393010099
:10903000159301000000000017930100199301002F
:1090400009C101001B9301006DC101001B930100C8
:109050001B930100000000001B9301001B93010003
:109060001B9301001B9301001B9301001B93010044
:109070001B9301001B9301001B9301001B93010034
:109080001B9301002D9501001B9301001B93010010
:109090001B9301001B930100C5C401001B93010039
:1090A0001B9301001B930100000000000000000062
:1090B0001B9301001B930100000000000000000052
:1090C00000000000000000000000000000000000A0
:1090D0000000000000000000000000000000000090
:1090E0000000000000000000000000000000000080
:1090F0000000000000000000000000000000000070
:10910000000000000000000000000000000000005F
:10911000000000000000000000000000000000004F
:10912000000000000000000000000000000000003F
:10913000000000000000000000000000000000002F
:10914000000000000000000000000000000000001F
:10915000000000000000000000000000000000000F
:1091600000000000000000000000000000000000FF
:1091700000000000000000000000000000000000EF
:1091800000000000000000000000000000000000DF
:1091900000000000000000000000000000000000CF
:1091A00000000000000000000000000000000000BF
:1091B00000000000000000000000000000000000AF
:1091C000000000000000000000000000000000009F
:1091D000000000000000000000000000000000008F
:1091E000000000000000000000000000000000007F
:1091F000000000000000000000000000000000006F
:1092000010B5054C237833B9044B13B10448AFF3C0
:1092100000800123237010BD280F002000000000F3
:109220006CD5010008B5034B1BB103490348AFF3EC
:10923000008008BD000000002C0F00206CD501004C
:10924000154B002B08BF134B9D46A3F5803A002118
:109250008B460F461348144A121A03F0CBF90F4BF2
:10926000002B00D098470E4B002B00D098470020D1
:10927000002104000D000D48002802D00C48AFF377
:10928000008003F085F92000290003F027F803F09F
:109290006BF900BF00000800A05D00200000000086
:1092A00000000000280F0020941B00200000000098
:1092B000000000000E4800680E4909680A280AD11B
:1092C000002908D10C4802686FF070031A404FF073
:1092D00040031A4302600949094A0A4B9B1A03DDFD
:1092E000043BC858D050FBDC00F0A4F9FFF7A8FFFE
:1092F0003001001034010010E40E004038D60100A7
:10930000B80E0020280F0020FEE7FEE7FEE7FEE78C
:10931000FEE7FEE7FEE7FEE7FEE7FEE71FB50021FA
:10932000039001AA44F20100CDE9011102F0DAFC38
:1093300005B05DF804FB0000074B084A1B78128853
:109340001846074B1B78984284BF511C5B181B1AA8
:109350009BB2D31A98B27047540F0020520F0020CE
:10936000460F00202DE9F347354E33888B420546E2
:109370000C4617465FD34FF000080DF107008DF83B
:10938000078000F099F82F4B2F4A30481978008851
:1093900092F800E086455FFA8EFC38BF0CF10108B8
:1093A000C9B238BF5FFA88F841453ED092F80080D4
:1093B00092F800C05FFA8CF1604586BF0131C9B2F6
:1093C000002111701B7819461378214A994284BFF5
:1093D00001301B185B1A11889BB2994200D213808E
:1093E0009DF8070000F08CF84FF6FF73984524D0E5
:1093F000DFF86490D9F800204FEAC80A42F83870C4
:1094000002EBC803A5B19CB1124B30881B68224601
:1094100008FB0030294603F0DFF8D9F80030534448
:1094200000209C8002B0BDE8F0874FF6FF78D7E7B8
:1094300000209880F6E70920F4E70420F2E700BF57
:10944000500F0020540F0020460F0020520F002024
:10945000440F0020480F00204C0F002007B50023C8
:109460000DF107008DF8073000F026F8064A9DF848
:1094700007001368591C1CBF0133136000F040F84B
:1094800003B05DF804FB00BF580F002007B50023B0
:109490000DF107008DF8073000F00EF8054A13684B
:1094A0000BB1013B13609DF8070000F029F803B0F1
:1094B0005DF804FB580F002070B5EFF3108672B60C
:1094C0000C4A946801239CB993600B4B0B4DD3F865
:1094D000801029401160C3F88050D3F88410516087
:1094E0004FF0FF32C3F88420047006B962B670BD35
:1094F0000370FAE77010002000E100E0FC06FFBDF9
:1095000010B5084B9A685AB150B9EFF3108172B692
:10951000054A1C6814605C685460986001B962B6C2
:1095200010BD00BF7010002000E100E0024B034AB4
:109530001B681068184700BF640F00205C0F0020F4
:1095400001600B6843604A68934204BF0023436094
:109550007047436843B1026891680B4443605268A6
:10956000934204BF00234360704700000C4B1B78FC
:10957000062B10D10B4B1B681A070CD10A4B18682D
:1095800000F0F003302B08D000F0E000A0F1400321
:10959000584258417047002070470120704700BF73
:1095A000E00F00F0E40F00F0E80F00F0094B1B782B
:1095B000062B0CD1084B1B681A0708D1074B1868FB
:1095C00000F0F000A0F130035842584170470020ED
:1095D000704700BFE00F00F0E40F00F0E80F00F06C
:1095E0000F4B1B680A2B03D10E4B1B68012B14D9A0
:1095F0000D4B1B78062B10D10C4B1B681A070CD196
:109600000B4B186800F0F003302B06D000F0E000A0
:10961000A0F140035842584170470120704700BFF5
:109620003001001034010010E00F00F0E40F00F0F2
:10963000E80F00F008B5FFF799FF28B1884B894A79
:109640001B68C3F304231360FFF7B0FF10B1864B10
:10965000864A1A60FFF7C4FF28B1854B854A1B680C
:10966000C3F342331360FFF7A1FF20B1824AD368EE
:1096700023F08073D360FFF7B3FF40B14FF0804316
:109680000022C3F80C21C3F81021C3F83825FFF7D6
:109690008DFF10B1794B03221A60FFF787FF40B1AD
:1096A000774B05221A6001229A6700229A603F22B6
:1096B0005A60744B1B680A2B03D1734B1B68012B38
:1096C0000DD9724B1B78062B09D1714B1B681907FA
:1096D00005D1704B1B6803F0F003502B46D14FF0BF
:1096E00080526D4BD2F80414C3F82015D2F8081438
:1096F000C3F82415D2F80C14C3F82815D2F81014A6
:10970000C3F82C15D2F81414C3F83015D2F8181475
:10971000C3F83415D2F81C14C3F84015D2F820143D
:10972000C3F84415D2F82414C3F84815D2F8281405
:10973000C3F84C15D2F82C14C3F85015D2F83014D5
:10974000C3F85415D2F83414C3F86015D2F838149D
:10975000C3F86415D2F83C14C3F86815D2F8401465
:10976000C3F86C15D2F84424C3F87025454B1B6828
:109770000A2B06D1444B1B681BB9484BFB22C3F88C
:109780001825FFF7F3FE28B1454B464A1B6803F046
:109790004F031360FFF724FF48B14FF08043D3F825
:1097A0000024D20744BF6FF00102C3F80024354BF8
:1097B0001B68062B47D1344B1B68062B3ED0394A19
:1097C000136843F00F0313604FF01023D3F8002207
:1097D000002A03DBD3F80432002B3DDA324B01229E
:1097E000C3F80425D3F80024002AFBD04FF0102240
:1097F0001521C2F80012D3F80024002AFBD04FF044
:1098000010231522C3F80422274B1A46D3F800145C
:109810000029FBD00021C3F80415D2F80034002B36
:10982000FBD0BFF34F8F2149214BCA6802F4E0629D
:109830001343CB60BFF34F8F00BFFDE71D4A136892
:1098400043F4806313600F4B1B680A2BB7D10E4B98
:109850001B68002BB3D1B7E7174B184A1A6008BD35
:10986000240300104035014074C007400DF0ADBA2C
:10987000440200103C050040F0ED00E0A00500406F
:10988000105600403001001034010010E00F00F0CD
:10989000E40F00F0E80F00F000C0004000F00040CE
:1098A00058020010E40E004000E0014000ED00E02E
:1098B0000400FA053C170040B80E00200090D003C9
:1098C00010B4002A00F0B980002B00F0B680002808
:1098D00000F0B3800488013C562C00F2A980DFE838
:1098E00004F02F2CA7A7A7A7A7A7A7A7A7A7A7A755
:1098F000A7504D3235383E5641593B444A47A7534D
:10990000A7A45F5CA7A7A762A7A7A7A7A7A7A7A7C2
:10991000A76E7D6568836B74807A71867789A7A747
:10992000A7A7A7A7A7A7A7A7A7A7A7A7A7A7A7A7C7
:10993000A795989B8C929E8FA10010BC00F07FB8D9
:1099400010BC00F0C2B810BC00F06EB910BC00F042
:109950008ABB10BC00F059BB10BC00F013B910BC9E
:1099600000F09EBA10BC00F0DEB810BC00F08AB95E
:1099700010BC00F0D6BA10BC00F0D1BB10BC00F097
:10998000DDB910BC00F0ACB910BC00F09ABB10BC43
:1099900000F018BA10BC00F043BA10BC00F0EDBBE8
:1099A00010BC00F028BC10BC00F053BC10BC01F08F
:1099B0001CB810BC01F0D0B810BC01F053B810BCFA
:1099C00001F044B910BC01F004B910BC01F07BB93E
:1099D00010BC01F0F2B910BC01F02CBA10BC01F0BF
:1099E000AFB910BC01F07BB810BC00F0C1BF10BC17
:1099F00001F05DBA10BC01F097BA10BC01F0D0BD07
:109A000010BC01F04DBE10BC01F0F7BD10BC01F060
:109A100075BE10BC01F06ABD10BC01F014BE10BCD4
:109A200001F0C4BE10BC01F0EEBE10BC00F0AFBA35
:109A300000221A60062010BC70470E20FBE7F0B52C
:109A4000164685B01C46054600283AD0002A38D074
:109A5000002B36D00388022B35D12768ADF80A30A9
:109A60000022039203AB3A4631460DF10A0001F0A1
:109A7000B9FF20BB03AB3A463146281D01F0B2FFC7
:109A8000E8B903AB3A46314605F1080001F0BBFFE7
:109A9000A8B903AB3A46314605F1100001F0A2FF28
:109AA00068B90090E86803AB3A46314602F05CF8CA
:109AB00028B9A88802F0E4F808B9039B236005B030
:109AC000F0BD0E20FBE70720F9E7F7B515461E4667
:109AD000044620B31AB313B30388012B21D137688E
:109AE000ADF802300022019201AB3A4629460DF151
:109AF000020001F077FF80B901AB3A462946201DEC
:109B000001F070FF48B901AB3A46294604F108005C
:109B100001F079FF08B9019B336003B0F0BD0E205E
:109B2000FBE70720F9E7F7B515461E46044620B3C4
:109B30001AB313B30388172B21D13768ADF802305D
:109B40000022019201AB3A4629460DF1020001F0D4
:109B500049FF80B901AB3A462946201D01F042FF7A
:109B600048B901AB3A46294604F1080001F04BFF21
:109B700008B9019B336003B0F0BD0E20FBE707205E
:109B8000F9E700002DE9FF4116461F46054600286B
:109B900044D0002A42D0002B40D00388192B3FD15B
:109BA000D7F80080ADF806300022029202AB4246A0
:109BB00031460DF1060001F015FF0446B8B902ABBD
:109BC00042463146281D01F00DFF044678B902AB2C
:109BD0004246314605F1080000F04EFD044630B91A
:109BE000A88803A901F0F4FF28B1029B3B6020463E
:109BF00004B0BDE8F081039831460A4E4FF4967CDC
:109C000002AB42460CFB006000F02AFE20B9A88897
:109C100001F0C8FF0028E8D00446E8E70E24E6E794
:109C20000724E4E780100020F7B515461E460446D9
:109C300020B31AB313B30388122B21D13768ADF8C0
:109C400002300022019201AB3A4629460DF1020092
:109C500001F0C8FE80B901AB3A462946201D01F04B
:109C6000C1FE48B901AB3A46294604F1080000F0AC
:109C7000DFFD08B9019B336003B0F0BD0E20FBE7A8
:109C80000720F9E7F7B515461E46044620B31AB378
:109C900013B303881A2B21D13768ADF802300022A4
:109CA000019201AB3A4629460DF1020001F09AFEFD
:109CB00080B901AB3A462946201D01F093FE48B910
:109CC00001AB3A46294604F1080000F025FD08B929
:109CD000019B336003B0F0BD0E20FBE70720F9E7DE
:109CE000F7B515461E46044620B31AB313B30388CE
:109CF000102B21D13768ADF802300022019201AB60
:109D00003A4629460DF1020001F06CFE80B901AB24
:109D10003A462946201D01F065FE48B901AB3A4696
:109D2000294604F1080000F039FD08B9019B3360B1
:109D300003B0F0BD0E20FBE70720F9E72DE9FF4156
:109D400016461F460546002838D0002A36D0002B7C
:109D500034D00388112B33D1D7F80080ADF806300A
:109D60000022029202AB424631460DF1060001F09C
:109D700039FE0446B8B902AB42463146281D01F00F
:109D800031FE044678B902AB4246314605F108007F
:109D900000F05CFD044630B9A88803A901F018FF63
:109DA00028B1029B3B60204604B0BDE8F081A88842
:109DB00001F0F8FE0028F4D00446F4E70E24F2E7A0
:109DC0000724F0E7F7B515461E46044620B31AB33C
:109DD00013B30388162B21D13768ADF80230002267
:109DE000019201AB3A4629460DF1020001F0FAFD5D
:109DF00080B901AB3A462946201D01F0F3FD48B970
:109E000001AB3A46294604F1080001F0FCFD08B90F
:109E1000019B336003B0F0BD0E20FBE70720F9E79C
:109E2000F0B5144685B01E460546002832D08AB3E8
:109E300083B30388182B2FD13768ADF80A3000227E
:109E4000039203AB3A4621460DF10A0001F0CAFD28
:109E5000F0B92B7BC3F300038DF809303A4603AB0E
:109E60002146281D01F0BEFD90B90C4B0093A86857
:109E700003AB3A46214601F077FE48B903AB3A46B8
:109E800021460DF1090001F0BEFD08B9039B3360C6
:109E900005B0F0BD0E20FBE70720F9E7BDA30100E8
:109EA0002DE9FF4114461D468046B0B3AAB3A3B3C3
:109EB0000388152B33D12E68ADF80A30002203AF8A
:109EC00003923B46324621460DF10A0001F08AFD1D
:109ED00000BB98F80E30C3F300038DF8093032460A
:109EE0003B46214608F1040001F07CFD90B9009743
:109EF00033462246062108F1080001F0D5FD48B995
:109F00003B46324621460DF1090001F07CFD08B9BF
:109F1000039B2B6004B0BDE8F0810E20FAE7072018
:109F2000F8E7F7B515461E46044660B35AB353B377
:109F300003881C2B29D13768ADF80230002201922A
:109F400001AB3A4629460DF1020001F04BFDC0B9C4
:109F500001AB3A462946201D01F044FD88B901AB0A
:109F60003A46294604F1080001F04DFD48B901AB1D
:109F70003A46294604F1090001F045FD08B9019B64
:109F8000336003B0F0BD0E20FBE70720F9E7F7B51B
:109F900016461D460446A0B39AB393B30388202BFC
:109FA00031D12F68ADF802300022019201AB3A4660
:109FB00031460DF1020001F015FD00BB01AB3A4640
:109FC0003146201D01F00EFDC8B901AB3A463146BD
:109FD00004F1080001F017FD88B901AB3A4631469B
:109FE00004F10A0000F0F9F948B901AB3A463146EC
:109FF00004F1090001F007FD08B9019B2B6003B0D3
:10A00000F0BD0E20FBE70720F9E7F7B515461E4621
:10A01000044620B31AB313B30388142B21D1376835
:10A02000ADF802300022019201AB3A4629460DF10B
:10A03000020001F0D7FC80B901AB3A462946201D49
:10A0400001F0D0FC48B901AB3A46294604F10800BA
:10A0500000F070FB08B9019B336003B0F0BD0E2027
:10A06000FBE70720F9E7F7B515461E46044620B37F
:10A070001AB313B30388132B21D13768ADF802301C
:10A080000022019201AB3A4629460DF1020001F08F
:10A09000A9FC80B901AB3A462946201D01F0A2FC7B
:10A0A00048B901AB3A46294604F1080000F0B2FB7A
:10A0B00008B9019B336003B0F0BD0E20FBE7072019
:10A0C000F9E7F7B515461E46044620B31AB313B395
:10A0D00003881E2B21D13768ADF80230002201928F
:10A0E00001AB3A4629460DF1020001F07BFC80B934
:10A0F00001AB3A462946201D01F074FC48B901AB7A
:10A100003A46294604F1080000F0CAFB08B9019B51
:10A11000336003B0F0BD0E20FBE70720F9E7F7B589
:10A1200015461E46044620B31AB313B303881B2BEF
:10A1300021D13768ADF802300022019201AB3A46D6
:10A1400029460DF1020001F04DFC80B901AB3A4601
:10A150002946201D01F046FC48B901AB3A46294684
:10A1600004F1080001F04FFC08B9019B336003B013
:10A17000F0BD0E20FBE70720F9E7F7B516461D46B0
:10A180000446A0B39AB393B30388222B31D12F682E
:10A19000ADF802300022019201AB3A4631460DF192
:10A1A000020001F01FFC00BB01AB3A463146201D06
:10A1B00001F018FCC8B901AB3A46314604F1080079
:10A1C00001F021FC88B901AB3A46314604F109009F
:10A1D00001F019FC48B901AB3A46314604F10A00D6
:10A1E00001F011FC08B9019B2B6003B0F0BD0E20FB
:10A1F000FBE70720F9E7F7B515461E46044620B3EE
:10A200001AB313B30388212B21D13768ADF802307C
:10A210000022019201AB3A4629460DF1020001F0FD
:10A22000E1FB80B901AB3A462946201D01F0DAFB7B
:10A2300048B901AB3A46294604F1080000F044FB56
:10A2400008B9019B336003B0F0BD0E20FBE7072087
:10A25000F9E7F7B515461E46044620B31AB313B303
:10A260000388262B21D13768ADF8023000220192F5
:10A2700001AB3A4629460DF1020001F0B3FB80B96B
:10A2800001AB3A462946201D01F0ACFB48B901ABB1
:10A290003A46294604F1080000F02EFB08B9019B5C
:10A2A000336003B0F0BD0E20FBE70720F9E710B4E0
:10A2B000019C10B1A44610BC60470E2010BC704732
:10A2C000F7B5044617461E460D4699B193B188B1BD
:10A2D000DFF828C0CDF800C0FFF7E9FF40B9064B12
:10A2E00000933A463346294604F11200FFF7DFFF98
:10A2F00003B0F0BD0E20FBE74BA6010047A4010010
:10A30000F7B5044617461E460D4699B193B188B17C
:10A31000DFF828C0CDF800C0FFF7C9FF40B9064BF1
:10A3200000933A463346294604F11000FFF7BFFF79
:10A3300003B0F0BD0E20FBE7DBA3010081A3010009
:10A340002DE9F341044617461E460D46A1B19BB1C7
:10A3500090B1DFF82880CDF80080FFF7A8FF40B962
:10A36000CDF8008033463A46294604F10800FFF74D
:10A370009EFF02B0BDE8F0810E20FAE727BB010086
:10A3800037B514460A4641B13BB130B100931021B4
:10A39000234601F089FB03B030BD0E20FBE737B543
:10A3A00014460A4641B13BB130B100931021234617
:10A3B00001F07AFB03B030BD0E20FBE737B5144641
:10A3C0000A4641B13BB130B100934021234601F030
:10A3D0006BFB03B030BD0E20FBE7F0B5044685B043
:10A3E00017461E460D46C1B1BBB1B0B1007800F0B2
:10A3F000FE0CC0F300004CEA00008DF80F000DF1D8
:10A400000F0001F000FB30B900963B462A460621BA
:10A41000601C01F049FB05B0F0BD0E20FBE713B551
:10A4200079B173B168B10078C0F3000400F00E0098
:10A4300020438DF807000DF1070001F0E4FA02B0A7
:10A4400010BD0E20FBE7F0B5074685B016461D4649
:10A450000C46C9B1C3B1B8B1009313460A461021E6
:10A4600001F022FB70B93B7C03F0FE02C3F3000352
:10A4700013438DF80F3032462B4621460DF10F0065
:10A4800001F0C1FA05B0F0BD0E20FBE713B579B1BC
:10A4900073B168B1007800F0F004C0F3030020430A
:10A4A0008DF807000DF1070001F0ADFA02B010BD04
:10A4B0000E20FBE7F7B5044617461E460D4689B148
:10A4C00083B178B1DFF824C0CDF800C0FFF7EFFE0C
:10A4D00048B933463A462946601C03B0BDE8F0400F
:10A4E00001F091BA0E2003B0F0BD00BF8DA40100B1
:10A4F0002DE9FF41044617461E460D4699B393B316
:10A5000088B30078C0F3000C00F0FE0040EA0C00B5
:10A510008DF80F000DF10F0001F075FA00BB334606
:10A520003A462946601C01F06EFAC8B933463A46ED
:10A530002946A01C01F067FA90B9DFF83080CDF809
:10A54000008033463A462946E01CFFF7B0FE38B992
:10A55000CDF8008033463A462946201DFFF7A7FE76
:10A5600004B0BDE8F0810E20FAE700BF71A501003C
:10A5700013B579B173B168B10078C0F3000400F08D
:10A580000E0020438DF807000DF1070001F03BFAA3
:10A5900002B010BD0E20FBE7F7B5044617461E4675
:10A5A0000D4619B313B308B311480090206801F0A9
:10A5B000DBFAC8B90F4B0093606833463A46294628
:10A5C00001F0D2FA80B90C4B0093A06833463A46AA
:10A5D000294601F0C9FA38B9084B0093E0683346C0
:10A5E0003A46294601F0C0FA03B0F0BD0E20FBE761
:10A5F000C1A2010001A301009FA30100BDA30100AE
:10A600002DE9F041044617461E460D46D1B1CBB1A7
:10A61000C0B101F0E7F9B0B933463A462946A01C6B
:10A6200001F0E0F978B933463A462946201D01F099
:10A63000D9F940B933463A462946A01DBDE8F04154
:10A6400001F0D0B90E20BDE8F081F7B504461746F9
:10A650001E460D4669B163B158B101F0C3F930B976
:10A6600000963B462A460821A01C01F01DFA03B0C3
:10A67000F0BD0E20FBE700002DE9FF410446174620
:10A680001E460D46002941D0002B3FD0F0B390F874
:10A6900001C00CF00C0ECCF3010C4EEA0C0C8DF842
:10A6A0000FC001F0B0F970BB33463A4629460DF1B0
:10A6B0000F0001F0A8F930BBDFF85480CDF800801E
:10A6C00033463A462946A01CFFF7F1FDD8B9CDF82C
:10A6D000008033463A462946E01CFFF7E8FD90B972
:10A6E000DFF83080CDF8008033463A462946201DF9
:10A6F000FFF7DDFD38B9CDF8008033463A462946EC
:10A70000601DFFF7D4FD04B0BDE8F0810E20FAE72C
:10A710001FA4010071A5010037B539B133B128B1CB
:10A72000034C0094FFF7C3FD03B030BD0E20FBE7E0
:10A73000B5A40100F0B5064685B017461D460C4687
:10A7400029B323B318B390F812C00CF0060ECCF363
:10A75000000C4EEA0C0C8DF80FC0DFF83CC0CDF8B1
:10A7600000C0FFF7A4FD80B90A4B00933A462B4680
:10A77000214606F10800FFF79AFD30B92B463A460C
:10A7800021460DF10F0001F03EF905B0F0BD0E209D
:10A79000FBE700BF4BA60100DBA30100F7B50446B1
:10A7A00017461E460D4661B35BB350B3DFF860C079
:10A7B000CDF800C0FFF77BFD08BB33463A4629467B
:10A7C000E01D01F020F9D0B90F4B00933A46334613
:10A7D000294604F10800FFF76AFD80B933463A467E
:10A7E000294604F1100001F00EF940B9074B00931F
:10A7F0003A463346294604F11400FFF758FD03B0EA
:10A80000F0BD0E20FBE700BF01A6010041A301003F
:10A81000DBA3010037B539B133B128B1034C009443
:10A82000FFF745FD03B030BD0E20FBE7F1A40100AA
:10A8300037B539B133B128B1034C0094FFF737FD78
:10A8400003B030BD0E20FBE701A6010030B421B1FA
:10A850001BB110B130BC01F0D6B80E2030BC70472F
:10A860002DE9F341044617461E460D46A1B19BB1A2
:10A8700090B1DFF82880CDF80080FFF718FD40B9CF
:10A88000CDF8008033463A46294604F11000FFF720
:10A890000EFD02B0BDE8F0810E20FAE799A5010097
:10A8A00013B579B173B168B10078C0F3000400F05A
:10A8B0000E0020438DF807000DF1070001F0A3F80A
:10A8C00002B010BD0E20FBE72DE9F041044617460B
:10A8D0001E460D4661B15BB150B101F094F840B92C
:10A8E00033463A462946601CBDE8F04101F08BB87A
:10A8F0000E20BDE8F0810000F7B5044617461E465D
:10A900000D46E1B1DBB1D0B101F07DF8A8B9334615
:10A910003A462946601C01F076F870B933463A464B
:10A920002946A01C01F06FF838B9064B00933A464F
:10A9300033462946201DFFF7BAFC03B0F0BD0E20B8
:10A94000FBE700BF41A3010013B579B173B168B152
:10A950000078C0F3000400F07E0020438DF807006B
:10A960000DF1070001F04FF802B010BD0E20FBE71B
:10A97000F7B516461D46044698B392B38BB30388C9
:10A98000342B30D12F68ADF802300022019201AB98
:10A990003A4631460DF1020001F024F8F8B901AB56
:10A9A0003A463146201D01F01DF8C0B901AB3A46C8
:10A9B0003146A01D01F016F888B901AB3A46314680
:10A9C00004F1080001F00EF848B901AB3A463146EF
:10A9D00004F10A0000F032FC08B9019B2B6003B0BF
:10A9E000F0BD0E20FBE70720F9E7F7B516461D4638
:10A9F000044698B392B38BB30388322B30D12F68BF
:10AA0000ADF802300022019201AB3A4631460DF119
:10AA1000020000F0E7FFF8B901AB3A463146201DCD
:10AA200000F0E0FFC0B901AB3A463146A01D00F08E
:10AA3000D9FF88B901AB3A46314604F1080000F06D
:10AA4000D1FF48B901AB3A46314604F10A0000F0A3
:10AA50003BFC08B9019B2B6003B0F0BD0E20FBE767
:10AA60000720F9E7F7B516461D46044698B392B39A
:10AA70008BB30388352B30D12F68ADF8023000221C
:10AA8000019201AB3A4631460DF1020000F0AAFFF7
:10AA9000F8B901AB3A463146201D00F0A3FFC0B91A
:10AAA00001AB3A463146A01D00F09CFF88B901ABCE
:10AAB0003A46314604F1080000F094FF48B901AB72
:10AAC0003A46314604F10A0000F050FB08B9019BF8
:10AAD0002B6003B0F0BD0E20FBE70720F9E7F7B5C8
:10AAE00016461D46044698B392B38BB30388372BA2
:10AAF00030D12F68ADF802300022019201AB3A4606
:10AB000031460DF1020000F06DFFF8B901AB3A4695
:10AB10003146201D00F066FFC0B901AB3A46314610
:10AB2000A01D00F05FFF88B901AB3A46314604F141
:10AB3000080000F057FF48B901AB3A46314604F12E
:10AB40000A0000F036FB08B9019B2B6003B0F0BD92
:10AB50000E20FBE70720F9E7F7B516461D46044629
:10AB600098B392B38BB30388332B30D12F68ADF8F1
:10AB700002300022019201AB3A4631460DF102004B
:10AB800000F030FFF8B901AB3A463146201D00F025
:10AB900029FFC0B901AB3A463146A01D00F022FFA3
:10ABA00088B901AB3A46314604F1080000F01AFFBB
:10ABB00048B901AB3A46314604F10A0000F0B2FB55
:10ABC00008B9019B2B6003B0F0BD0E20FBE7072006
:10ABD000F9E7F7B516461D46044698B392B38BB312
:10ABE0000388392B30D12F68ADF802300022019252
:10ABF00001AB3A4631460DF1020000F0F3FEF8B920
:10AC000001AB3A463146201D00F0ECFEC0B901AB65
:10AC10003A463146A01D00F0E5FE88B901AB3A4640
:10AC2000314604F1080000F0DDFE48B901AB3A46B8
:10AC3000314604F10A0000F0A3FB08B9019B2B6028
:10AC400003B0F0BD0E20FBE70720F9E7F7B5164685
:10AC50001D46044698B392B38BB30388302B30D192
:10AC60002F68ADF802300022019201AB3A4631461E
:10AC70000DF1020000F0B6FEF8B901AB3A463146DC
:10AC8000201D00F0AFFEC0B901AB3A463146A01D11
:10AC900000F0A8FE88B901AB3A46314604F108003D
:10ACA00000F0A0FE48B901AB3A46314604F10A0073
:10ACB00000F08AFB08B9019B2B6003B0F0BD0E20A9
:10ACC000FBE70720F9E7F7B516461D46044698B39B
:10ACD00092B38BB30388362B30D12F68ADF8023096
:10ACE0000022019201AB3A4631460DF1020000F01C
:10ACF00079FEF8B901AB3A463146201D00F072FEEC
:10AD0000C0B901AB3A463146A01D00F06BFE88B9D0
:10AD100001AB3A46314604F1080000F063FE48B941
:10AD200001AB3A46314604F10A0000F07BFB08B95A
:10AD3000019B2B6003B0F0BD0E20FBE70720F9E775
:10AD4000F7B516461D46044698B392B38BB30388F5
:10AD5000312B30D12F68ADF802300022019201ABC7
:10AD60003A4631460DF1020000F03CFEF8B901AB65
:10AD70003A463146201D00F035FEC0B901AB3A46D7
:10AD80003146A01D00F02EFE88B901AB3A4631468F
:10AD900004F1080000F026FE48B901AB3A463146FE
:10ADA00004F10A0000F01CFA08B9019B2B6003B003
:10ADB000F0BD0E20FBE70720F9E7F7B516461D4664
:10ADC000044698B392B38BB303883B2B30D12F68E2
:10ADD000ADF802300022019201AB3A4631460DF146
:10ADE000020000F0FFFDF8B901AB3A463146201DE4
:10ADF00000F0F8FDC0B901AB3A463146A01D00F0A5
:10AE0000F1FD88B901AB3A46314604F1080000F083
:10AE1000E9FD48B901AB3A46314604F10A0000F0B9
:10AE200025FB08B9019B2B6003B0F0BD0E20FBE7AA
:10AE30000720F9E7F7B516461D46044698B392B3C6
:10AE40008BB30388382B30D12F68ADF80230002245
:10AE5000019201AB3A4631460DF1020000F0C2FD0D
:10AE6000F8B901AB3A463146201D00F0BBFDC0B930
:10AE700001AB3A463146A01D00F0B4FD88B901ABE4
:10AE80003A46314604F1080000F0ACFD48B901AB88
:10AE90003A46314604F10A0000F0F2FA08B9019B83
:10AEA0002B6003B0F0BD0E20FBE70720F9E7F7B5F4
:10AEB00016461D46044698B392B38BB303883A2BCB
:10AEC00030D12F68ADF802300022019201AB3A4632
:10AED00031460DF1020000F085FDF8B901AB3A46AC
:10AEE0003146201D00F07EFDC0B901AB3A46314627
:10AEF000A01D00F077FD88B901AB3A46314604F158
:10AF0000080000F06FFD48B901AB3A46314604F144
:10AF10000A0000F0E1FA08B9019B2B6003B0F0BD14
:10AF20000E20FBE70720F9E7F7B516461D46044655
:10AF300098B392B38BB303883C2B30D12F68ADF814
:10AF400002300022019201AB3A4631460DF1020077
:10AF500000F048FDF8B901AB3A463146201D00F03B
:10AF600041FDC0B901AB3A463146A01D00F03AFDA3
:10AF700088B901AB3A46314604F1080000F032FDD1
:10AF800048B901AB3A46314604F10A0000F03BFDF6
:10AF900008B9019B2B6003B0F0BD0E20FBE7072032
:10AFA000F9E710B4019C10B1A44610BC60470E2014
:10AFB00010BC7047F7B5044617461E460D4691B1C2
:10AFC0008BB180B1DFF828C0CDF800C0FFF7E9FFF2
:10AFD00038B9064B00933A4633462946201DFFF701
:10AFE000E0FF03B0F0BD0E20FBE700BFF5AF0100AE
:10AFF000DBBA01002DE9F041044617461E460D4616
:10B0000061B15BB150B100F0EDFC40B933463A4656
:10B010002946A01CBDE8F04100F0E4BC0E20BDE8CC
:10B02000F0810000F7B5044617461E460D4671B183
:10B030006BB160B100F0D6FC38B9064B00933A46CC
:10B0400033462946A01CFFF7ACFF03B0F0BD0E202D
:10B05000FBE700BFB5AF0100F7B5044617461E4633
:10B060000D4671B16BB160B100F0BCFC38B9064B54
:10B0700000933A4633462946A01CFFF792FF03B0DF
:10B08000F0BD0E20FBE700BFDBBA0100F7B50446B8
:10B0900017461E460D4671B16BB160B100F0A2FCBF
:10B0A00038B9064B00933A4633462946A01CFFF7B1
:10B0B00078FF03B0F0BD0E20FBE700BF09BB010025
:10B0C000F7B5044617461E460D4671B16BB160B127
:10B0D00000F088FC38B9064B00933A4633462946BF
:10B0E000A01CFFF75EFF03B0F0BD0E20FBE700BF22
:10B0F000DBBA0100F0B5044685B017461E460D4682
:10B1000071B36BB360B3DFF860C0CDF800C0FFF778
:10B1100048FF18BB134B00933A4633462946201D7F
:10B12000FFF73FFFD0B96379C3F300038DF80F3009
:10B130003A46334629460DF10F0000F064FC68B929
:10B1400033463A462946A01D00F04CFC30B9334640
:10B150003A46294604F1080000F044FC05B0F0BD71
:10B160000E20FBE749A90100DBBA0100F7B5044650
:10B1700017461E460D46D1B1CBB1C0B100F032FC2E
:10B1800098B933463A462946A01C00F02BFC60B91A
:10B19000618820468B1C30F8041B009611FB03F1DC
:10B1A0002A463B4689B200F07FFC03B0F0BD0E207A
:10B1B000FBE7F7B5044617461E460D4671B16BB165
:10B1C00060B100F00FFC38B92046009630F8021B41
:10B1D0003B462A4600F068FC03B0F0BD0E20FBE7BA
:10B1E0002DE9F74F054692461F460E46F9B1F3B1D9
:10B1F000E8B100F0F7FB044638B9DFF83CB005F1E0
:10B20000020980462B88434503D8204603B0BDE899
:10B21000F08FCDF800B03B46524631464846FFF726
:10B22000C0FE30B909F10A0908F10108EAE70E2465
:10B23000EBE70446E9E700BF25B001002DE9F04F38
:10B24000054685B0914698460F46002933D093B302
:10B2500088B300F0C7FB0446B0B943464A463946B6
:10B26000A81C00F0D0FB044670B9A978144A154B0D
:10B27000012918BF1A460392064605F1040A4FF049
:10B28000060B2B88B34203D8204605B0BDE8F08FEB
:10B29000AB78012B1CBF122303FB06A0039B00937A
:10B2A00008BF0BFB06A043464A463946FFF779FE26
:10B2B00018B90136E5E70E24E6E70446E4E700BFE7
:10B2C00059B001008DB001002DE9F74F05469246B7
:10B2D0001F460E46F9B1F3B1E8B100F083FB044616
:10B2E00038B9DFF83CB005F1020980462B884345A8
:10B2F00003D8204603B0BDE8F08F4846CDF800B033
:10B300003B4652463146FFF74CFE09F10A0920B987
:10B3100008F10108EAE70E24EBE70446E9E700BF7D
:10B32000F5B001002DE9F74F054692461F460E463F
:10B33000F9B1F3B1E8B100F055FB044638B9DFF8D4
:10B340003CB005F1020980462B88434503D82046CE
:10B3500003B0BDE8F08F4846CDF800B03B465246FA
:10B360003146FFF71EFE09F1060920B908F1010870
:10B37000EAE70E24EBE70446E9E700BFC1B00100AD
:10B38000F7B5044617461E460D46D9B1D3B1C8B12C
:10B3900000F028FBA0B933463A462946A01C00F02D
:10B3A00032FB68B933463A462946201D00F01AFBA5
:10B3B00030B9A18800963B462A46A01D00F074FBD8
:10B3C00003B0F0BD0E20FBE72DE9F74F054692468E
:10B3D0001F460E46F9B1F3B1E8B100F003FB044695
:10B3E00038B9DFF83CB005F1020980462B884345A7
:10B3F00003D8204603B0BDE8F08F4846CDF800B032
:10B400003B4652463146FFF7CCFD09F1080920B909
:10B4100008F10108EAE70E24EBE70446E9E700BF7C
:10B42000B5AF0100F7B5044617461E460D46D9B123
:10B43000D3B1C8B100F0D6FAA0B933463A4629468E
:10B44000A01C00F0CFFA68B933463A462946201DC1
:10B4500000F0C8FA30B9A18800963B462A46A01DE4
:10B4600000F022FB03B0F0BD0E20FBE730B421B1A9
:10B470001BB110B130BC00F0C6BA0E2030BC704712
:10B48000F7B5044617461E460D4619B313B308B365
:10B4900000F0A8FAE0B933463A462946A01C00F06D
:10B4A000B2FAA8B933463A462946201D00F09AFA66
:10B4B00070B933463A462946A01D00F093FA38B9D0
:10B4C000E18800963B462A4604F1080000F0ECFAB9
:10B4D00003B0F0BD0E20FBE730B421B11BB110B1B9
:10B4E00030BC00F07FBA0E2030BC70472DE9F0432D
:10B4F000164687B01F46054600284BD0002A49D083
:10B50000002B47D00388512B46D1D7F80090ADF8D7
:10B510000E3000220DF11008049243464A4631468F
:10B520000DF10E0000F05EFA044660BB43464A4649
:10B530003146281D00F056FA044620BB43464A46D1
:10B540003146A81D00F0E6F90446E0B9AB79022BBC
:10B550001DD1AB7B03F0FD03042B18D1A88805A9EE
:10B5600000F0A6FB052812D00C4B0598CDF8008002
:10B570004C2202FB00303B6801894068324600F0F3
:10B580007BFA20B10446204607B0BDE8F083049B57
:10B590003B60F8E70E24F6E70724F4E7F41A0020EE
:10B5A000F7B515461E46044618B312B30BB303880D
:10B5B000532B20D13768ADF802300022019201AB45
:10B5C0003A4629460DF1020000F00CFA78B901ABB9
:10B5D0003A462946201D00F005FA40B901AB3A462B
:10B5E0002946A01D00F0C6F908B9019B336003B0DD
:10B5F000F0BD0E20FBE70720F9E7F7B516461C461D
:10B600000546E0B1DAB1D3B10388542B19D12768CC
:10B61000ADF802300022019201AB3A4631460DF1FD
:10B62000020000F0DFF940B901AB3A463146281D6F
:10B6300000F0D8F908B9019B236003B0F0BD0E20DB
:10B64000FBE70720F9E7F7B515461E46044618B391
:10B6500012B30BB30388522B20D13768ADF80230F8
:10B660000022019201AB3A4629460DF1020000F09A
:10B67000B9F978B901AB3A462946201D00F0B2F974
:10B6800040B901AB3A462946A01D00F07DF908B942
:10B69000019B336003B0F0BD0E20FBE70720F9E704
:10B6A000F7B515461E46044618B312B30BB303880C
:10B6B000562B20D13768ADF802300022019201AB41
:10B6C0003A4629460DF1020000F08CF978B901AB39
:10B6D0003A462946201D00F085F940B901AB3A46AB
:10B6E0002946A01D00F05AF908B9019B336003B048
:10B6F000F0BD0E20FBE70720F9E700002DE9F0433D
:10B70000164687B01F460546002848D0002A46D076
:10B71000002B44D00388502B43D1D7F80080ADF8DC
:10B720000E3000220DF1100904924B46424631467C
:10B730000DF10E0000F056F9044648BB4B46424658
:10B740003146281D00F04EF9044608BB4B464246E0
:10B750003146A81D00F0A2F80446C8B92B7B012B86
:10B7600001D0062B18D1A88805A900F0A1FA052858
:10B7700012D00D4B0598CDF800904C2202FB003002
:10B78000434601894068324600F076F920B104460C
:10B79000204607B0BDE8F083049B3B60F8E70E2429
:10B7A000F6E70724F4E700BFF41A0020F7B51546C2
:10B7B0001E46044618B312B30BB30388552B20D191
:10B7C0003768ADF802300022019201AB3A462946B3
:10B7D0000DF1020000F006F978B901AB3A462946AE
:10B7E000201D00F0FFF840B901AB3A462946A01DE4
:10B7F00000F0B6F808B9019B336003B0F0BD0E202D
:10B80000FBE70720F9E7F7B515461E46044618B3CF
:10B8100012B30BB30388572B20D13768ADF8023031
:10B820000022019201AB3A4629460DF1020000F0D8
:10B83000D9F878B901AB3A462946201D00F0D2F874
:10B8400040B901AB3A462946A01D00F0DCF808B922
:10B85000019B336003B0F0BD0E20FBE70720F9E742
:10B860002DE9F041044617461E460D4699B193B1A5
:10B8700088B100F0B7F878B933463A462946A01C9B
:10B8800000F02BF940B933463A462946A01DBDE8E1
:10B89000F04100F0A7B80E20BDE8F081F7B50446EE
:10B8A00017461E460D4699B393B388B300F09AF835
:10B8B00060BB33463A462946A01C00F00EF928BB6F
:10B8C00033463A462946A01D00F09DF8F0B93346AC
:10B8D0003A462946E01D00F096F8B8B933463A4694
:10B8E000294604F1080000F07DF878B933463A465D
:10B8F000294604F10A0000F075F838B9618900960C
:10B900003B462A4604F10C0000F0CEF803B0F0BD2F
:10B910000E20FBE72DE9F041044617461E460D4672
:10B92000E1B1DBB1D0B100F06EF828B92378012B7A
:10B9300004D0022B0AD00720BDE8F08133463A46F6
:10B940002946A01CBDE8F041FFF78ABF33463A46BE
:10B950002946A01CBDE8F041FFF7A0BF0E20EBE791
:10B9600030B421B11BB110B130BC00F03BB80E2097
:10B9700030BC704730B421B11BB110B130BC00F005
:10B9800031B80E2030BC704730B421B11BB110B1BA
:10B9900030BC00F038B80E2030BC704730B421B154
:10B9A0001BB110B130BC00F02EB80E2030BC704777
:10B9B00010B599B190B18BB11C68121B032A0FD935
:10B9C00002680A550819110A4170110C120E817093
:10B9D000C2701A6804321A60002010BD0E20FCE705
:10B9E0000920FAE710B51C68121B012A09D9028840
:10B9F0000A550819120A42701A6802321A600020A9
:10BA000010BD0920FCE710B51C6894421FBF0278E6
:10BA10000A551A6801321ABF1A600020092010BDA9
:10BA20002DE9F743DDF828801C46031E18BF0123CB
:10BA300091468DF807300E46074643462246494652
:10BA40000DF10700FFF7DFFF054678B977B1D8F8A9
:10BA50000000241AA6420DD839463246484400F068
:10BA6000BBFDD8F800103144C8F80010284603B0D8
:10BA7000BDE8F0830925F9E77FB514461D46064663
:10BA8000ADF80E10089B2A4621460DF10E00FFF777
:10BA9000A9FF38B90093BDF80E102B462246304658
:10BAA000FFF7BEFF04B070BD70B5049D0C4616468E
:10BAB000014670B16AB165B128681B1A9C420AD868
:10BAC0002246304400F088FD296821442960002086
:10BAD00070BD0E20FCE70920FAE72DE9F04104468D
:10BAE00017461E460D4661B15BB150B1FFF77AFFB4
:10BAF00040B933463A462946A01CBDE8F041FFF75D
:10BB000082BF0E20BDE8F08137B514460A4641B128
:10BB10003BB130B1009310212346FFF7C5FF03B0BE
:10BB200030BD0E20FBE7F0B5044685B017461E4633
:10BB30000D46B9B1B3B1A8B100230068039300F07A
:10BB400061F8334603903A46294603A8FFF730FFD1
:10BB500030B9A188206800963B462A46FFF78CFF43
:10BB600005B0F0BD0E20FBE7D3F800C0F0B50CF136
:10BB7000010E9645059C11D8002814BF4FF0010E08
:10BB80004FF0000E01F80CE01F6807F101071F607D
:10BB900005D02CB1A446BDE8F04060470920F0BDB7
:10BBA0002046FCE7094B1A8882420BD0B3F82C21BF
:10BBB000824209D101224FF4967101FB0233002029
:10BBC000987070470022F6E7052070477C1000202F
:10BBD0000B4B1A8882421A4602D19B78012B0AD05D
:10BBE000B2F82C31834208D192F82E31012B04D1C6
:10BBF0000B60002070470023FAE70520704700BF64
:10BC00007C100020B0B31C4B984224D003F5827204
:10BC1000904222D003F50272904220D003F5437285
:10BC200090421ED003F5826290421CD003F214525F
:10BC300090421AD003F5C362904218D003F21C73ED
:10BC4000984216D107234FF4827253430B490022C6
:10BC5000C858CA5070470023F5E70123F3E70223D1
:10BC6000F1E70323EFE70423EDE70523EBE70623E2
:10BC7000E9E70020704700BFD8120020D41200204E
:10BC80000A4B1A8882421A460BD0B3F84C308342D2
:10BC900009D101234C2101FB032300209870586037
:10BCA00070470023F6E70520704700BFF41A002014
:10BCB0000B4B1A8882421A4602D19B78012B0AD07C
:10BCC000B2F84C30834208D192F84E30012B04D1A7
:10BCD0000B60002070470023FAE70520704700BF83
:10BCE000F41A002013B5002304460DF107008DF867
:10BCF0000730FDF7E1FB0B4B9C420CD0BFF34F8F9D
:10BD000009490A4BCA6802F4E0621343CB60BFF3EF
:10BD10004F8F00BFFDE79DF80700FDF7F1FB02B074
:10BD200010BD00BFFECADDBA00ED00E00400FA0558
:10BD300037B5224D2B780446002B3CD110B90E208C
:10BD4000FDF7ECFA0023CDE9003301A9684600F0C5
:10BD500071F804280CD100F049F8F6E7009800F0DB
:10BD6000B3F808B1FDF7DAFA1548FDF7D7FA22E083
:10BD700008B1FDF7D3FA009B02221A70019B009ACA
:10BD8000013B0193013201AB00212046FDF798FDF4
:10BD90000628E3D008B1FDF7C1FA019900980131F6
:10BDA000019189B200F060F808B1FDF7B7FA2B787D
:10BDB0000BB9FDF753FB03B030BD00BF8C1B002057
:10BDC000FECADDBA08B5084A4188FDF7CBFA08B1CA
:10BDD000FDF7A4FAFDF7B0FA012803D8BDE8084042
:10BDE00000F04EBB08BD00BF31BD0100024B1B6817
:10BDF00003B11847704700BF680F002008B500F076
:10BE0000FBFA024B00221A7008BD00BF8C1B0020F9
:10BE1000032808B50BD10021054A0846FDF7A2FA10
:10BE200008B1FDF77BFABDE80840FDF72FBB08BD60
:10BE3000FDBD010068B161B1094B1A785AB1012A00
:10BE40000BD102221A70074B036080230B80002065
:10BE500070470E207047082070470420704700BFCD
:10BE6000EC0F00206C0F002070B50D460446E0B1C9
:10BE7000E9B1134B98421CD180291CD8114E33785C
:10BE8000022B1AD100F082F82046294600F034F83F
:10BE9000044628B90323337000F072F8204670BDC1
:10BEA00011280CBF04460324F6E70E24F6E7072406
:10BEB000F4E71024F2E70C24F0E70824EEE700BFD3
:10BEC0006C0F0020EC0F002060B1094B98420BD1A1
:10BED000084B1A78022A01D0042A07D101221A70CD
:10BEE000002070470E2070471020704708207047D0
:10BEF0006C0F0020EC0F002073B50C46054650B3C4
:10BF000059B300230DF107008DF80730FDF7D4FA7F
:10BF1000144B9DF807001E780122F6B21A70FDF747
:10BF2000EFFAE6B91049230A4B70104B0C701D60F4
:10BF30000F4B1C800F4B1B78022243B10E4800F0C0
:10BF400083F910B1FDF7EAF9002002B070BD0B488B
:10BF500000F02AF9F5E70E20F7E70720F5E71120B2
:10BF6000F3E700BFF20F0020F00F0020F40F0020D5
:10BF7000EE0F00208D1B00200CD5010014D5010010
:10BF8000014B04221A60704700E100E0024B0422DA
:10BF9000C3F88020704700BF00E100E038B5074CCF
:10BFA000051E04F1080318BF1C4623682BB11A684C
:10BFB00022605B6828469847F7E738BD00100020EC
:10BFC00020B9054B01225A70FFF7E8BF012802D1C2
:10BFD000014A9070F8E77047F80F002020B9034B32
:10BFE00001225A70FFF7DABF704700BFF80F002038
:10BFF00038B50B4C237883B90A486360A36023618A
:10C00000E36000F057F8054600F034FA08B900F094
:10C010005DF801232370284638BD8525FBE700BF66
:10C02000F80F0020C1BF010037B50B4C00230DF104
:10C0300007008DF80730FDF73FFAE368013BE36046
:10C04000E56815B900F054F8A5709DF80700FDF7F4
:10C0500057FA03B030BD00BFF80F0020012813B518
:10C0600008D003281CD018B9104B0122C3F8802037
:10C0700002B010BD0E4C00230DF107008DF8073003
:10C08000FDF71AFA23780BB9FFF7B2FFE3689DF8C2
:10C0900007000133E3600123A370FDF731FAE7E7FE
:10C0A00000F014F8FFF7C0FFE2E700BF00E100E096
:10C0B000F80F0020044B0246187918B91A600122C3
:10C0C0009A807047852070470C100020074B1A6833
:10C0D000D2075FBFC02283F8002301221A604FF00D
:10C0E00080430122C3F81825704700BF00E100E03B
:10C0F000044B01221A604FF08042D2F81834DB035F
:10C10000FBD470470C00004007B5154B1A687AB194
:10C1100000221A601B680093009B4FF080430122AD
:10C12000C3F808230F4B587910B95A711B68984708
:10C130000D4B1A6882B100221A601B680193019BA3
:10C140004FF080430222C3F80823064B1B680120EE
:10C1500003B05DF804EB184703B05DF804FB00BFC3
:10C16000000100400C10002004010040014B1B683E
:10C17000184700BF141000200023435082B04358DA
:10C180000193019B02B070470A4610B54FF48E71BF
:10C19000FFF7F2FF136A9168C95C136A01331362F7
:10C1A000C0F81C1510BD00002DE9F047214F90F894
:10C1B00004904FF02C0808FB097405466669002EB0
:10C1C00035D16261A160266284F8286000684FF46E
:10C1D0008E71FFF7D1FF2B6801229A6028682146F3
:10C1E000FFF7D2FF6368A0468BB92868D4F814A083
:10C1F000236A9A4511D82A68D2F81C31002BFBD04B
:10C200000123D3602C2303FB097300225A613046BB
:10C21000BDE8F08794F828303BB9D0F81C31002BEA
:10C22000F8D04146FFF7B0FFE2E70F26EAE7112614
:10C23000EDE700BF1C1000200023435082B043589C
:10C240000193019B02B0704701F06043B3F1005FBE
:10C250002DE9F04105463BD11F4B0779242606FB0B
:10C26000073698467469002C34D17261B160006859
:10C270004FF49071FFF7E0FF4FF4AC712868FFF7BF
:10C28000DBFF2B687269B168C3F84415C3F8482511
:10C290002B6801229A607368BBB92B68D3F8202100
:10C2A000D3F858411AB9002CF8D00F2408E0002C1C
:10C2B000FBD10122DA602A68D2F85831002BFBD07A
:10C2C000242303FB078700237B612046BDE8F08120
:10C2D0001024FAE71124F8E7481000202DE9F04176
:10C2E0004FF0A043154D4FF480374FF40031C3F8A1
:10C2F00018751C46C3F81815B846C3F8087545F0FC
:10C300000105C3F808154FF40033C4F808854FF44D
:10C310007A76C4F808354FF47A40A847013EFAD13E
:10C320004FF40033C4F80C754FF47A76C4F80C352A
:10C330004FF47A40A847013EFAD1E4E720D5010046
:10C3400010DF704713B5044609496846FDF7F8F851
:10C35000019808B902B010BDD0E9003120469847D5
:10C3600018B16846FDF7F5F8F2E71120F2E700BFD3
:10C370002CD5010013B5044607496846FDF7E0F8DF
:10C38000019B0BB902B010BD2046D3E900219047B4
:10C390006846FDF7DEF8F3E744D50100064B9A68DE
:10C3A00022B11A6822F480021A607047034B4FF4DE
:10C3B0008002C3F8802070477010002000E100E088
:10C3C0000B4991F816335A09EC231341DB0706D5C4
:10C3D000084B9A683AB94FF480030B60704742F2F9
:10C3E0000200FCF79BBF1A6842F480021A60704793
:10C3F00000E100E070100020F7B5194F3C7864BBF5
:10C40000184E012520463570FFF79CFF112821D0DA
:10C410002046FFF7AFFF144B8DF8034018680190DA
:10C420000DF10300FDF748F8104901A8FFF788FF58
:10C430000446B0FA80F0400938709DF80300FDF71B
:10C440005FF83CB90A4B34701C70FFF7B9FF2846FF
:10C45000FFF790FF204603B0F0BD0824FAE700BFC5
:10C460006D1000206C10002026D50100E5BC0100F5
:10C470006E100020014B1878704700BF6D1000202F
:10C4800008B5044B1B7823B1FFF788FF024B01224C
:10C490001A7008BD6D1000206E10002007B5084905
:10C4A0006846FDF74DF8019B13B903B05DF804FB36
:10C4B000D3E9002090476846FDF74BF8F3E700BF4B
:10C4C00038D50100FFF7EABF61DF704730B5114D85
:10C4D000ADF5037D4FF4FE740DF1020103A8ADF834
:10C4E0000240FFF7F1FF70B9294601A8FDF728F8CF
:10C4F000029B002BF0D003A8D3E90021904701A8AC
:10C50000FDF727F8F4E7052801D0FCF707FF0DF544
:10C51000037D30BD50D50100024B1B780BB1FFF7F6
:10C52000D5BF70476F1000204BDF70471FB50D4C13
:10C5300001A8FFF7F9FF70B9214602A8FDF700F83E
:10C54000039B002BF4D00198D3E90021904702A867
:10C55000FCF7FFFFF4E7052801D0FCF7DFFE04B08D
:10C5600010BD00BF5CD5010008B5074B044613B1F0
:10C570000021AFF30080054B1868836A03B1984728
:10C58000204600F03FF800BF0000000068D5010021
:10C5900070B50D4D0D4C641BA4100026A64209D1A8
:10C5A0000B4D0C4C00F0A4FF641BA4100026A64207
:10C5B00005D170BD55F8043B98470136EEE755F8B4
:10C5C000043B98470136F2E7200F0020200F00209F
:10C5D000200F0020240F00200A44914200F1FF3375
:10C5E00000D1704710B511F8014B03F8014F91428B
:10C5F000F9D110BD02440346934200D1704703F8BD
:10C60000011BF9E7FEE700BF03685A004CBF43F087
:10C61000004323F000431844704700BF2DE9F8435E
:10C6200029B34F1E044615463E464FF0000808EB5E
:10C63000060101EBD171491004EBC1094846FFF72F
:10C64000E3FF0346C80008308F42204409D0AB42C4
:10C6500009D8FFF7D9FF0138A8420AD201F1010831
:10C66000E5E7AB4205D9884501D04E1EDFE74FF024
:10C6700000094846BDE8F883012807D0022807D002
:10C68000044B00280CBF1846002070470248704732
:10C690000248704729CD010031CD010039CD01009C
:10C6A00030B5234B83B004468D1E3BB301A9284609
:10C6B000AFF30080E8B101992A46FFF7AFFF0146CA
:10C6C000B8B1FFF7A1FF4B68A064012B2BD0002B62
:10C6D00001F1040023DBFFF797FF0023C4E91303F4
:10C6E0000368002B10DBFFF78FFF2061002003B0F1
:10C6F00030BD00230920236103B030BD0D490E4831
:10C70000091AC9100191D7E7C3F30360FFF7B4FF1B
:10C710000028206114BF0020092003B030BD012390
:10C72000C4E91303DCE7002323610520DFE700BF32
:10C730000000000038D60100A0D501000368DA0728
:10C7400010B5044606D49B0700F1480009D500F057
:10C7500047FC2368590709D51A070ED5DB0613D500
:10C7600010BD00F035FC23685907F5D404F1D00062
:10C7700000F03EFC23681A07F0D404F5A87000F01E
:10C780003FFC2368DB06EBD404F5E870BDE81040FD
:10C7900000F07ABC0346006800B11844704700BF3F
:10C7A000704700BF70B504460E46316C2046FFF757
:10C7B00077FF054688B9336C6361324623692146A9
:10C7C000012098470828F0D0072806D12846316C68
:10C7D000FFF7E6FF301D00F0EFFB00F02DFE00BF7D
:10C7E0002DE9F0470D1D064614460FCDADF5727DBF
:10C7F0000DF10C0CACE80F000FCDACE80F000FCD25
:10C80000ACE80F0095E80F0002ADF768D6F8188085
:10C810008CE80F0000232B6021E02B6C73614FF438
:10C82000F07229467AA8FFF7D7FE33697AAA314613
:10C8300050469847889BCDE9005821466B64814655
:10C84000334632460120B8470446E8B94FF4F07247
:10C850007AA92846FFF7C0FEB9F1080F1BD1296C51
:10C860003046FFF71DFF09345FFA84FA814600283D
:10C87000D3D0AB6B4AF01001CDE9005832466B645F
:10C8800001203346B84708B14FF0090948460DF575
:10C89000727DBDE8F087B9F1070FF5D12046296C0C
:10C8A000FFF77EFF03A800F087FB00BFF0B5CB6B5E
:10C8B0000B640E1D0F4605460FCEF9B001AC0FC438
:10C8C0000FCE0FC40FCE0FC496E80F004FF0FF3607
:10C8D00084E80F00009606E02B696A4629469847CF
:10C8E0000828044608D110992846FFF7D9FE0028E9
:10C8F000F2D0092079B0F0BD6846FFF71FFF062C83
:10C90000F7D139462846FFF74DFF00BF30B4DD6B45
:10C91000C160826119461D64002230BCFFF760BF10
:10C9200070B5C66843690B64AEB903690A4604462C
:10C930000D46014602209847072805D008280FD148
:10C9400029462046FFF72EFF3046296CFFF728FFC7
:10C95000281D00F031FB0122FFF742FF00F06CFDC3
:10C9600000F06AFDC26822B1CA6B0A640022FFF7B8
:10C9700037BFFFF79BBF00BF012912D009D873B999
:10C980000F2A0CD800EB820218465368009A1360F5
:10C9900070470339012994BF01200220704702200B
:10C9A00070470846704700BF10B584B0002303AC41
:10C9B0000A4600941946FFF7DFFF039804B010BD44
:10C9C000012912D009D873B90F2A0CD800EB8200C4
:10C9D000009A12684260184670470339012994BFD3
:10C9E000012002207047022070470846704700BFB0
:10C9F00010B584B0002303AC039200940A46194694
:10CA0000FFF7DEFF04B010BDF0B5D36B1364151D46
:10CA10008C4606460FCDADF50F7D17AC0FC40FCD7C
:10CA20000FC40FCD0FC495E80F004FF0FF3784E817
:10CA30000F006546169710E0FFF7DAFF294616A8A3
:10CA4000B047034616AA6946082083B9049B984755
:10CA5000052804460CD0092809D026996846FFF716
:10CA60001FFE03466A460C2116A8002BE4D00924B9
:10CA700016A8FFF763FE20460DF50F7DF0BD00BF41
:10CA80002DE9F04FCC6C89B00D4654F8041B069488
:10CA9000174600F003081E46002B79D00B0CDAB2C3
:10CAA00009048DF81D30022304EB820405918DF8F2
:10CAB0001C302B6DB8F1020F08BFAC6B13F00103F3
:10CAC0000CD0384605A900F069FB18B9082009B058
:10CAD000BDE8F08F092009B0BDE8F08FD4F800A0C0
:10CAE000BAF1000FEDD0019300F008030293022E7B
:10CAF0004AD0B4F800A0B4F802900434AA6C29F02B
:10CB0000010B0F2138469344FFF74EFF834539D878
:10CB10002AF001025A44824294BF002001204FEAC9
:10CB2000490303F002030AF0010A43EA0A03012B56
:10CB300049D0022B32D0002BCCD1B8F1000F02D05B
:10CB4000002840F0CD800434D4F800A0BAF1000FE2
:10CB5000CDD105A9384600F021FB0028BAD1019BB0
:10CB6000002BB3D00F213846FFF71EFF0E210246DF
:10CB70003846FFF73DFF38466A4A0F21FFF738FF76
:10CB80000720A8E70020CAE7D4F804900834B5E7E6
:10CB9000090203230591ADF81C308AE7236823F0CE
:10CBA000004BB8F1000F45D128B1029A002A5CD0A1
:10CBB000BBF1000F74D0002B00DA04340BF1010B31
:10CBC00004EB8B04C0E7B8F1000F19D1B0B1D4E980
:10CBD0000023991C4FEAD2723FF47CAF05F1580153
:10CBE0000133049100F09080201DFFF7D3FD04ABCA
:10CBF00001462846AFF3008000285BD10834A3E744
:10CC00000D213846D5F82090FFF7CEFE8145F5D1AD
:10CC1000AB6A9C42F2D12046FFF7F6FC0F21024698
:10CC20003846FFF7E5FE38462A460021FFF7E0FECA
:10CC3000072050E70D213846D5F82090FFF7B4FEC5
:10CC4000814501D02368B6E7AB6A9C42FAD1042241
:10CC50000021C5E90B12A318C5F828B06B6323683F
:10CC60008B4259DB01230193A8E705F15803CDF866
:10CC70000C8004F1040AB04691461E460DE004966D
:10CC8000FFF788FD04AB014600222846AFF3008081
:10CC900009F101090AF1040AE8B9D9455046EED173
:10CCA00038460D21FFF780FE049B2862C5E9093450
:10CCB000062010E781460D213846FFF775FEB9F1D1
:10CCC000020F286225D12B46049A43F82C2F6B6261
:10CCD000AC620620FFE646462368DDF80C806AE772
:10CCE0002046FFF791FC04340246AC632846144604
:10CCF000AFF3008000283FF4EDAE384622460F2106
:10CD0000FFF776FE0720E6E638460D21FFF74CFEDA
:10CD10002862049B6B62DBE70BF1010004EB8000EF
:10CD20007AE700BF000000000023FFF7A9BE00BFA4
:10CD30000123FFF7A5BE00BF0223FFF7A1BE00BF7E
:10CD40002DE9F0430646C3B015461C46042900F2FF
:10CD5000B980DFE801F09A53B7290300002C40F0B6
:10CD6000B180102A00F2AE800368D80600F1F3808B
:10CD700020AF384600F092F9B06B0023012404FA8A
:10CD800003F22A42014604D051F8042B47F823202D
:10CD900008460133042BF2D1B063384600F074F931
:10CDA000002043B0BDE8F083032C40F08B8094B2A8
:10CDB00004EB1243102B4FEA124500F28380036804
:10CDC0001F0700F1D08020AF384600F03BF907EB99
:10CDD000C501B56B54B10B46E81A01EBC401E40080
:10CDE0001A5843F8042B8B42FAD125443846B563D0
:10CDF00000F006F9002043B0BDE8F083012C4FEAB3
:10CE0000124895B25AD0052C5CD108EB0509B9F14E
:10CE1000200F57D8B8F10F0F77D9A946002D40F051
:10CE20008880B36B6DB320AF4FF0000907EBC807E4
:10CE3000043F03EBC50553F8041B47F8041FAB423E
:10CE4000F9D1B9F1000F0FD06F464146102938BF14
:10CE5000102107EBC101843903EBC90553F8040B1A
:10CE600041F8040FAB42F9D1012C00F08480B8F1F5
:10CE70000F0FB56345D9B9F1000F02D0684600F035
:10CE8000B7F8002043B0BDE8F083DCB9876B2346D8
:10CE9000012094B206F1040C00FA03F22242394652
:10CEA00004D051F8042B4CF823200F460133102BEB
:10CEB000F2D115F40050E4D1B76304E008EB0503A8
:10CEC000102B03D9022043B0BDE8F083B8F10F0F57
:10CED000F8D83368DA0706D5304623F0030340F864
:10CEE000483B00F079F820AF384600F075F8B36B96
:10CEF000002D99D11D460435B563384600F068F819
:10CF0000BFE720A800F06CF8B5E7B9F1100F40D9E1
:10CF1000A9F110093368D90708D523F00103304679
:10CF200043F0020340F8483B00F05EF8B9F1000F0F
:10CF300032D033685A0720D4B8F10F0F25D96F4685
:10CF40003846C8F1100500F057F8002DB36B7FF795
:10CF50007CAF20AF6AE723F01003336006F5E8707A
:10CF600000F09CF804E723F00803036000F5A870C4
:10CF700000F068F827E720AFBDE7304623F0040350
:10CF800040F8D03B00F038F8D6E720A800F02CF8A5
:10CF9000D5E74FF00009BDE7B8F10F0F3FF641AFFD
:10CFA00020AF384600F020F8B36B002D7FF43CAF83
:10CFB000384600F015F864E700F1340191E83800D4
:10CFC0009C46A6464CF8045D90E8FF0FE54600BD80
:10CFD00090EC210B704700BF80EC210B704700BF25
:10CFE00090EC200B704700BF80EC200B704700BF17
:10CFF000D0EC200B704700BFC0EC200B704700BF87
:10D00000F0EC0201F0EC0211F0EC0221F0EC023144
:10D01000F0EC0241F0EC0251F0EC0261F0EC027134
:10D02000F0EC0281F0EC0291F0EC02A1F0EC02B124
:10D03000F0EC02C1F0EC02D1F0EC02E1F0EC02F114
:10D04000704700BFE0EC0201E0EC0211E0EC0221CD
:10D05000E0EC0231E0EC0241E0EC0251E0EC026174
:10D06000E0EC0271E0EC0281E0EC0291E0EC02A164
:10D07000E0EC02B1E0EC02C1E0EC02D1E0EC02E154
:10D08000E0EC02F1704700BFB0FC0181B0FC0191FF
:10D09000B0FC01A1B0FC01B1704700BFA0FC018150
:10D0A000A0FC0191A0FC01A1A0FC01B1704700BF50
:10D0B000EC4600B52DE900502DE9FF1F4FF00003AD
:10D0C0002DE90C0001A9FFF7F1FBDDF840E012B0FB
:10D0D000704700BFEC4600B52DE900502DE9FF1F59
:10D0E0004FF000032DE90C0001A9FFF719FCDDF852
:10D0F00040E012B0704700BFEC4600B52DE900508B
:10D100002DE9FF1F4FF000032DE90C0001A9FFF7E7
:10D1100029FCDDF840E012B0704700BFEC4600B5D6
:10D120002DE900502DE9FF1F4FF000032DE90C0001
:10D1300001ABFFF7EBFBDDF840E012B0704700BF3A
:10D14000EC4600B52DE900502DE9FF1F4FF000031C
:10D150002DE90C0001AAFFF757FCDDF840E012B002
:10D16000704700BF027A7AB9437AA3B14268013BA3
:10D1700010B4437213680321141D01721A02446033
:10D18000026010BC180E70470368013A02721A025E
:10D190000260180E7047B020704700BF2DE9F043C1
:10D1A000054685B00E464FF000083046FFF7DAFF1F
:10D1B000B028044600F0B280070620D500F0F00346
:10D1C000802B4DD0902B36D0A02B60D0B02B74D0BC
:10D1D000C02B00F08B8000F0F803D02B0BD100F0B7
:10D1E0000702013242F40022052301212846FFF7FD
:10D1F000A7FD0028D9D0092005B0BDE8F0830DF1C6
:10D200000C09002319468700CDF800900D2228460E
:10D21000FFF7B2FBFFB2039BCDF800900437600626
:10D220004CBFDF1BFF18002319460D222846039729
:10D23000FFF7C6FBB9E700F00D030D2BDBD003AF02
:10D24000002300F00F02194600972846FFF794FBD1
:10D250000023009719460D222846FFF7B1FBA4E7EB
:10D260003046FFF77FFF24022043B0F5004FC2D0C5
:10D2700004010023A2B219462846FFF761FD0028E9
:10D28000B9D114F4004F18BF4FF001088DE7C24325
:10D2900002F007034FF47F621A41010702F47F6234
:10D2A0004FF0000348BF42F4804219462846FFF77A
:10D2B00047FD00283FF479AF9DE7B12833D0B2286D
:10D2C00000F08B80B32839D000F0FC03B42B92D04F
:10D2D00000F007020132012342F4002219462846D9
:10D2E000FFF72EFD00283FF460AF84E7C62842D048
:10D2F000C7284CD000F0F803C02B5BD0C82860D002
:10D30000C9287FF478AF3046FFF72CFF020300F006
:10D310000F0002F470220130024365E7B8F1000FFC
:10D3200018D0002068E73046FFF71CFF02460028AF
:10D330003FF461AF10F0F003D0D05CE73046FFF768
:10D3400011FF010300F00F0001F47021421C0123C2
:10D350000A43C3E703AC43460E22414600942846E5
:10D36000FFF70AFB0094284643460F224146FFF789
:10D3700027FB404640E73046FFF7F4FE010300F08C
:10D380000F0001F47021421C03230A43A6E7304634
:10D39000FFF7E8FE024600283FF42DAF10F0F0033F
:10D3A0007FF429AF04212846FFF7CAFC00283FF488
:10D3B000FCAE20E700F00F020132032342F42022EA
:10D3C0008CE73046FFF7CEFE00F0F00200F00F03CE
:10D3D0001032013343EA023206E700230DF10C0953
:10D3E0000D221946CDF800902846FFF7C5FA3046C1
:10D3F000FFF7B8FE02064FF002070CD5039B00F0C2
:10D400007F00B840034430460393FFF7ABFE0306AA
:10D4100007F10707F2D4039BCDF8009000F07F04DA
:10D4200003F50172BC400023144419460D2228461E
:10D430000394FFF7C5FAB8E608B5062000F02CF80B
:10D440000120FFF7DFF81F2938B504460D4604D93F
:10D45000162303604FF0FF3038BD426C12B152F812
:10D4600021304BB9204600F031F82A4601462046CB
:10D47000BDE8384000F018B8012B0AD0591C03D180
:10D48000162303600120E7E7002442F825402846E0
:10D4900098470020E0E70000024B01461868FFF7BC
:10D4A000D2BF00BFBC0E002038B5074D0023044694
:10D4B000084611462B6000F013F8431C02D12B687C
:10D4C00003B1236038BD00BF901B002000F000B8FE
:10D4D000024B58221A604FF0FF307047901B00201B
:10D4E000024B58221A604FF0FF307047901B00200B
:10D4F000F8B500BFF8BC08BC9E467047F8B500BF41
:10D50000F8BC08BC9E4670470000000000200040A8
:10D5100000000000002000400000000000000000AB
:10D520000338FDD87047010000070000A0D50100B6
:10D53000A0D501000800000090D50100A0D5010091
:10D540000800000080D5010090D50100080000000F
:10D5500070D5010078D501000800000078D50100E1
:10D5600080D5010008000000C00E0020000000006F
:08D57000C5BD01000000000030
:08D57800DDBF0100000000000E
:10D5800011BE0100000000005DC0010000000000AD
:10D5900019C50100000000002DC5010000000000B9
:10D5A000A0BCFF7F0100000034EDFF7FB0B0AC8075
:10D5B00090EDFF7F01000000E8F0FF7FB0A902803E
:10D5C0007CF1FF7FB0B0A880CCF1FF7F01000000AC
:10D5D000D4F1FF7FB0B0AA8008F2FF7FAE71B280B5
:10D5E000CCF2FF7FAB3F388024F3FF7F01000000C7
:10D5F00030F3FF7FB0B0AA806CF3FF7F0100000022
:10D6000008F4FF7FAB0EB28078F4FF7FB0AF0880E4
:10D6100018F7FF7F0100000028F7FF7FAD3F028071
:10D6200098F9FF7F0100000074FBFF7FB0AD04801C
:08D6300008FEFF7F010000006D
:10D638000090D003C00E0020000000000000000091
:10D6480000000000000000000000000000000000D2
:10D6580000000000000000000000000000000000C2
:10D6680000000000000000000000000000000000B2
:10D6780000000000000000000000000000000000A2
:10D688000000000000000000000000000000000092
:10D698000000000000000000259201000192010036
:04000003100092B5A2
:00000001FF
